{
  "_format": "hh-sol-artifact-1",
  "contractName": "NTT",
  "sourceName": "contracts/NTT.sol",
  "abi": [
    {
      "inputs": [
        {
          "internalType": "string",
          "name": "name_",
          "type": "string"
        },
        {
          "internalType": "string",
          "name": "symbol_",
          "type": "string"
        }
      ],
      "stateMutability": "nonpayable",
      "type": "constructor"
    },
    {
      "anonymous": false,
      "inputs": [
        {
          "indexed": false,
          "internalType": "address",
          "name": "owner",
          "type": "address"
        },
        {
          "indexed": false,
          "internalType": "uint256",
          "name": "tokenId",
          "type": "uint256"
        }
      ],
      "name": "Minted",
      "type": "event"
    },
    {
      "anonymous": false,
      "inputs": [
        {
          "indexed": false,
          "internalType": "address",
          "name": "owner",
          "type": "address"
        },
        {
          "indexed": false,
          "internalType": "uint256",
          "name": "tokenId",
          "type": "uint256"
        }
      ],
      "name": "Revoked",
      "type": "event"
    },
    {
      "inputs": [
        {
          "internalType": "address",
          "name": "owner",
          "type": "address"
        }
      ],
      "name": "balanceOf",
      "outputs": [
        {
          "internalType": "uint256",
          "name": "",
          "type": "uint256"
        }
      ],
      "stateMutability": "view",
      "type": "function"
    },
    {
      "inputs": [],
      "name": "emittedCount",
      "outputs": [
        {
          "internalType": "uint256",
          "name": "",
          "type": "uint256"
        }
      ],
      "stateMutability": "view",
      "type": "function"
    },
    {
      "inputs": [
        {
          "internalType": "address",
          "name": "owner",
          "type": "address"
        }
      ],
      "name": "hasValid",
      "outputs": [
        {
          "internalType": "bool",
          "name": "",
          "type": "bool"
        }
      ],
      "stateMutability": "view",
      "type": "function"
    },
    {
      "inputs": [],
      "name": "holdersCount",
      "outputs": [
        {
          "internalType": "uint256",
          "name": "",
          "type": "uint256"
        }
      ],
      "stateMutability": "view",
      "type": "function"
    },
    {
      "inputs": [
        {
          "internalType": "uint256",
          "name": "tokenId",
          "type": "uint256"
        }
      ],
      "name": "isValid",
      "outputs": [
        {
          "internalType": "bool",
          "name": "",
          "type": "bool"
        }
      ],
      "stateMutability": "view",
      "type": "function"
    },
    {
      "inputs": [
        {
          "internalType": "address",
          "name": "owner",
          "type": "address"
        }
      ],
      "name": "mint",
      "outputs": [],
      "stateMutability": "nonpayable",
      "type": "function"
    },
    {
      "inputs": [],
      "name": "name",
      "outputs": [
        {
          "internalType": "string",
          "name": "",
          "type": "string"
        }
      ],
      "stateMutability": "view",
      "type": "function"
    },
    {
      "inputs": [
        {
          "internalType": "uint256",
          "name": "tokenId",
          "type": "uint256"
        }
      ],
      "name": "ownerOf",
      "outputs": [
        {
          "internalType": "address",
          "name": "",
          "type": "address"
        }
      ],
      "stateMutability": "view",
      "type": "function"
    },
    {
      "inputs": [
        {
          "internalType": "uint256",
          "name": "tokenId",
          "type": "uint256"
        }
      ],
      "name": "revoke",
      "outputs": [],
      "stateMutability": "nonpayable",
      "type": "function"
    },
    {
      "inputs": [
        {
          "internalType": "bytes4",
          "name": "interfaceId",
          "type": "bytes4"
        }
      ],
      "name": "supportsInterface",
      "outputs": [
        {
          "internalType": "bool",
          "name": "",
          "type": "bool"
        }
      ],
      "stateMutability": "view",
      "type": "function"
    },
    {
      "inputs": [],
      "name": "symbol",
      "outputs": [
        {
          "internalType": "string",
          "name": "",
          "type": "string"
        }
      ],
      "stateMutability": "view",
      "type": "function"
    },
    {
      "inputs": [
        {
          "internalType": "uint256",
          "name": "index",
          "type": "uint256"
        }
      ],
      "name": "tokenByIndex",
      "outputs": [
        {
          "internalType": "uint256",
          "name": "",
          "type": "uint256"
        }
      ],
      "stateMutability": "view",
      "type": "function"
    },
    {
      "inputs": [
        {
          "internalType": "address",
          "name": "owner",
          "type": "address"
        },
        {
          "internalType": "uint256",
          "name": "index",
          "type": "uint256"
        }
      ],
      "name": "tokenOfOwnerByIndex",
      "outputs": [
        {
          "internalType": "uint256",
          "name": "",
          "type": "uint256"
        }
      ],
      "stateMutability": "view",
      "type": "function"
    },
    {
      "inputs": [
        {
          "internalType": "uint256",
          "name": "tokenId",
          "type": "uint256"
        }
      ],
      "name": "tokenURI",
      "outputs": [
        {
          "internalType": "string",
          "name": "",
          "type": "string"
        }
      ],
      "stateMutability": "view",
      "type": "function"
    }
  ],
  "bytecode": "0x60806040523480156200001157600080fd5b5060405162001eb038038062001eb0833981810160405281019062000037919062000303565b8181816004908051906020019062000051929190620000b6565b5080600590805190602001906200006a929190620000b6565b5033600860006101000a81548173ffffffffffffffffffffffffffffffffffffffff021916908373ffffffffffffffffffffffffffffffffffffffff16021790555050505050620003ed565b828054620000c490620003b7565b90600052602060002090601f016020900481019282620000e8576000855562000134565b82601f106200010357805160ff191683800117855562000134565b8280016001018555821562000134579182015b828111156200013357825182559160200191906001019062000116565b5b50905062000143919062000147565b5090565b5b808211156200016257600081600090555060010162000148565b5090565b6000604051905090565b600080fd5b600080fd5b600080fd5b600080fd5b6000601f19601f8301169050919050565b7f4e487b7100000000000000000000000000000000000000000000000000000000600052604160045260246000fd5b620001cf8262000184565b810181811067ffffffffffffffff82111715620001f157620001f062000195565b5b80604052505050565b60006200020662000166565b9050620002148282620001c4565b919050565b600067ffffffffffffffff82111562000237576200023662000195565b5b620002428262000184565b9050602081019050919050565b60005b838110156200026f57808201518184015260208101905062000252565b838111156200027f576000848401525b50505050565b60006200029c620002968462000219565b620001fa565b905082815260208101848484011115620002bb57620002ba6200017f565b5b620002c88482856200024f565b509392505050565b600082601f830112620002e857620002e76200017a565b5b8151620002fa84826020860162000285565b91505092915050565b600080604083850312156200031d576200031c62000170565b5b600083015167ffffffffffffffff8111156200033e576200033d62000175565b5b6200034c85828601620002d0565b925050602083015167ffffffffffffffff81111562000370576200036f62000175565b5b6200037e85828601620002d0565b9150509250929050565b7f4e487b7100000000000000000000000000000000000000000000000000000000600052602260045260246000fd5b60006002820490506001821680620003d057607f821691505b60208210811415620003e757620003e662000388565b5b50919050565b611ab380620003fd6000396000f3fe608060405234801561001057600080fd5b50600436106100ea5760003560e01c80636352211e1161008c57806370a082311161006657806370a082311461027157806395d89b41146102a1578063c87b56dd146102bf578063f577a500146102ef576100ea565b80636352211e146102075780636a627842146102375780636b4ed21b14610253576100ea565b806326019c18116100c857806326019c18146101595780632f745c591461017757806343945512146101a75780634f6ccce7146101d7576100ea565b806301ffc9a7146100ef57806306fdde031461011f57806320c5429b1461013d575b600080fd5b6101096004803603810190610104919061125a565b61031f565b60405161011691906112a2565b60405180910390f35b610127610469565b6040516101349190611356565b60405180910390f35b610157600480360381019061015291906113ae565b6104fb565b005b61016161054e565b60405161016e91906113ea565b60405180910390f35b610191600480360381019061018c9190611463565b610558565b60405161019e91906113ea565b60405180910390f35b6101c160048036038101906101bc91906114a3565b610609565b6040516101ce91906112a2565b60405180910390f35b6101f160048036038101906101ec91906113ae565b610654565b6040516101fe91906113ea565b60405180910390f35b610221600480360381019061021c91906113ae565b61065e565b60405161022e91906114df565b60405180910390f35b610251600480360381019061024c91906114a3565b610694565b005b61025b6106e8565b60405161026891906113ea565b60405180910390f35b61028b600480360381019061028691906114a3565b6106f2565b60405161029891906113ea565b60405180910390f35b6102a961073e565b6040516102b69190611356565b60405180910390f35b6102d960048036038101906102d491906113ae565b6107d0565b6040516102e69190611356565b60405180910390f35b610309600480360381019061030491906113ae565b61083f565b60405161031691906112a2565b60405180910390f35b60007fa511533d000000000000000000000000000000000000000000000000000000007bffffffffffffffffffffffffffffffffffffffffffffffffffffffff1916827bffffffffffffffffffffffffffffffffffffffffffffffffffffffff191614806103ea57507f5b5e139f000000000000000000000000000000000000000000000000000000007bffffffffffffffffffffffffffffffffffffffffffffffffffffffff1916827bffffffffffffffffffffffffffffffffffffffffffffffffffffffff1916145b8061045257507f2d57debd000000000000000000000000000000000000000000000000000000007bffffffffffffffffffffffffffffffffffffffffffffffffffffffff1916827bffffffffffffffffffffffffffffffffffffffffffffffffffffffff1916145b80610462575061046182610862565b5b9050919050565b60606004805461047890611529565b80601f01602080910402602001604051908101604052809291908181526020018280546104a490611529565b80156104f15780601f106104c6576101008083540402835291602001916104f1565b820191906000526020600020905b8154815290600101906020018083116104d457829003601f168201915b5050505050905090565b6105036108cc565b610542576040517f08c379a0000000000000000000000000000000000000000000000000000000008152600401610539906115a7565b60405180910390fd5b61054b81610924565b50565b6000600654905090565b600080600160008573ffffffffffffffffffffffffffffffffffffffff1673ffffffffffffffffffffffffffffffffffffffff1681526020019081526020016000209050808054905083106105e2576040517f08c379a00000000000000000000000000000000000000000000000000000000081526004016105d990611613565b60405180910390fd5b8083815481106105f5576105f4611633565b5b906000526020600020015491505092915050565b600080600360008473ffffffffffffffffffffffffffffffffffffffff1673ffffffffffffffffffffffffffffffffffffffff16815260200190815260200160002054119050919050565b6000819050919050565b600061066982610aef565b60010160009054906101000a900473ffffffffffffffffffffffffffffffffffffffff169050919050565b61069c6108cc565b6106db576040517f08c379a00000000000000000000000000000000000000000000000000000000081526004016106d2906116ae565b60405180910390fd5b6106e481610ba3565b5050565b6000600754905090565b6000600160008373ffffffffffffffffffffffffffffffffffffffff1673ffffffffffffffffffffffffffffffffffffffff168152602001908152602001600020805490509050919050565b60606005805461074d90611529565b80601f016020809104026020016040519081016040528092919081815260200182805461077990611529565b80156107c65780601f1061079b576101008083540402835291602001916107c6565b820191906000526020600020905b8154815290600101906020018083116107a957829003601f168201915b5050505050905090565b60606107db82610aef565b5060006107e6610c0e565b905060008151111561082657806107fe846020610c4b565b60405160200161080f929190611751565b60405160208183030381529060405291505061083a565b604051806020016040528060008152509150505b919050565b600061084a82610aef565b60010160149054906101000a900460ff169050919050565b60007f01ffc9a7000000000000000000000000000000000000000000000000000000007bffffffffffffffffffffffffffffffffffffffffffffffffffffffff1916827bffffffffffffffffffffffffffffffffffffffffffffffffffffffff1916149050919050565b6000600860009054906101000a900473ffffffffffffffffffffffffffffffffffffffff1673ffffffffffffffffffffffffffffffffffffffff163373ffffffffffffffffffffffffffffffffffffffff1614905090565b600061092f82610aef565b90508060010160149054906101000a900460ff16610982576040517f08c379a0000000000000000000000000000000000000000000000000000000008152600401610979906117c1565b60405180910390fd5b60008160010160146101000a81548160ff0219169083151502179055506000600360008360010160009054906101000a900473ffffffffffffffffffffffffffffffffffffffff1673ffffffffffffffffffffffffffffffffffffffff1673ffffffffffffffffffffffffffffffffffffffff1681526020019081526020016000205411610a1357610a126117e1565b5b6001600360008360010160009054906101000a900473ffffffffffffffffffffffffffffffffffffffff1673ffffffffffffffffffffffffffffffffffffffff1673ffffffffffffffffffffffffffffffffffffffff1681526020019081526020016000206000828254610a87919061183f565b925050819055507f713b90881ad62c4fa8ab6bd9197fa86481fc0c11b2edba60026514281b2dbac48160010160009054906101000a900473ffffffffffffffffffffffffffffffffffffffff1683604051610ae3929190611873565b60405180910390a15050565b6000806000808481526020019081526020016000209050600073ffffffffffffffffffffffffffffffffffffffff168160010160009054906101000a900473ffffffffffffffffffffffffffffffffffffffff1673ffffffffffffffffffffffffffffffffffffffff161415610b9a576040517f08c379a0000000000000000000000000000000000000000000000000000000008152600401610b9190611613565b60405180910390fd5b80915050919050565b60006006549050610bb682826001610e87565b7f30385c845b448a36257a6a1716e6ad2e1bc2cbe333cde1e69fe849ad6511adfe8282604051610be7929190611873565b60405180910390a1600160066000828254610c02919061189c565b92505081905550919050565b60606040518060400160405280601181526020017f687474703a2f2f6c6f63616c686f73742f000000000000000000000000000000815250905090565b606060006002836002610c5e91906118f2565b610c68919061189c565b67ffffffffffffffff811115610c8157610c8061194c565b5b6040519080825280601f01601f191660200182016040528015610cb35781602001600182028036833780820191505090505b5090507f300000000000000000000000000000000000000000000000000000000000000081600081518110610ceb57610cea611633565b5b60200101907effffffffffffffffffffffffffffffffffffffffffffffffffffffffffffff1916908160001a9053507f780000000000000000000000000000000000000000000000000000000000000081600181518110610d4f57610d4e611633565b5b60200101907effffffffffffffffffffffffffffffffffffffffffffffffffffffffffffff1916908160001a90535060006001846002610d8f91906118f2565b610d99919061189c565b90505b6001811115610e39577f3031323334353637383961626364656600000000000000000000000000000000600f861660108110610ddb57610dda611633565b5b1a60f81b828281518110610df257610df1611633565b5b60200101907effffffffffffffffffffffffffffffffffffffffffffffffffffffffffffff1916908160001a905350600485901c945080610e329061197b565b9050610d9c565b5060008414610e7d576040517f08c379a0000000000000000000000000000000000000000000000000000000008152600401610e74906119f1565b60405180910390fd5b8091505092915050565b600073ffffffffffffffffffffffffffffffffffffffff1660008084815260200190815260200160002060010160009054906101000a900473ffffffffffffffffffffffffffffffffffffffff1673ffffffffffffffffffffffffffffffffffffffff1614610f2b576040517f08c379a0000000000000000000000000000000000000000000000000000000008152600401610f2290611a5d565b60405180910390fd5b6000600160008573ffffffffffffffffffffffffffffffffffffffff1673ffffffffffffffffffffffffffffffffffffffff168152602001908152602001600020805490501415610f9157600160076000828254610f89919061189c565b925050819055505b60405180606001604052803373ffffffffffffffffffffffffffffffffffffffff1681526020018473ffffffffffffffffffffffffffffffffffffffff16815260200182151581525060008084815260200190815260200160002060008201518160000160006101000a81548173ffffffffffffffffffffffffffffffffffffffff021916908373ffffffffffffffffffffffffffffffffffffffff16021790555060208201518160010160006101000a81548173ffffffffffffffffffffffffffffffffffffffff021916908373ffffffffffffffffffffffffffffffffffffffff16021790555060408201518160010160146101000a81548160ff021916908315150217905550905050600160008473ffffffffffffffffffffffffffffffffffffffff1673ffffffffffffffffffffffffffffffffffffffff16815260200190815260200160002080549050600260008573ffffffffffffffffffffffffffffffffffffffff1673ffffffffffffffffffffffffffffffffffffffff168152602001908152602001600020600084815260200190815260200160002081905550600160008473ffffffffffffffffffffffffffffffffffffffff1673ffffffffffffffffffffffffffffffffffffffff16815260200190815260200160002082908060018154018082558091505060019003906000526020600020016000909190919091505580156111f8576001600360008573ffffffffffffffffffffffffffffffffffffffff1673ffffffffffffffffffffffffffffffffffffffff16815260200190815260200160002060008282546111f0919061189c565b925050819055505b505050565b600080fd5b60007fffffffff0000000000000000000000000000000000000000000000000000000082169050919050565b61123781611202565b811461124257600080fd5b50565b6000813590506112548161122e565b92915050565b6000602082840312156112705761126f6111fd565b5b600061127e84828501611245565b91505092915050565b60008115159050919050565b61129c81611287565b82525050565b60006020820190506112b76000830184611293565b92915050565b600081519050919050565b600082825260208201905092915050565b60005b838110156112f75780820151818401526020810190506112dc565b83811115611306576000848401525b50505050565b6000601f19601f8301169050919050565b6000611328826112bd565b61133281856112c8565b93506113428185602086016112d9565b61134b8161130c565b840191505092915050565b60006020820190508181036000830152611370818461131d565b905092915050565b6000819050919050565b61138b81611378565b811461139657600080fd5b50565b6000813590506113a881611382565b92915050565b6000602082840312156113c4576113c36111fd565b5b60006113d284828501611399565b91505092915050565b6113e481611378565b82525050565b60006020820190506113ff60008301846113db565b92915050565b600073ffffffffffffffffffffffffffffffffffffffff82169050919050565b600061143082611405565b9050919050565b61144081611425565b811461144b57600080fd5b50565b60008135905061145d81611437565b92915050565b6000806040838503121561147a576114796111fd565b5b60006114888582860161144e565b925050602061149985828601611399565b9150509250929050565b6000602082840312156114b9576114b86111fd565b5b60006114c78482850161144e565b91505092915050565b6114d981611425565b82525050565b60006020820190506114f460008301846114d0565b92915050565b7f4e487b7100000000000000000000000000000000000000000000000000000000600052602260045260246000fd5b6000600282049050600182168061154157607f821691505b60208210811415611555576115546114fa565b5b50919050565b7f4f6e6c7920436f6e74726163742063726561746f722063616e207265766f6b65600082015250565b60006115916020836112c8565b915061159c8261155b565b602082019050919050565b600060208201905081810360008301526115c081611584565b9050919050565b7f546f6b656e20646f6573206e6f74206578697374000000000000000000000000600082015250565b60006115fd6014836112c8565b9150611608826115c7565b602082019050919050565b6000602082019050818103600083015261162c816115f0565b9050919050565b7f4e487b7100000000000000000000000000000000000000000000000000000000600052603260045260246000fd5b7f4f6e6c7920436f6e74726163742063726561746f722063616e206d696e740000600082015250565b6000611698601e836112c8565b91506116a382611662565b602082019050919050565b600060208201905081810360008301526116c78161168b565b9050919050565b600081519050919050565b600081905092915050565b60006116ef826116ce565b6116f981856116d9565b93506117098185602086016112d9565b80840191505092915050565b600081905092915050565b600061172b826112bd565b6117358185611715565b93506117458185602086016112d9565b80840191505092915050565b600061175d82856116e4565b91506117698284611720565b91508190509392505050565b7f546f6b656e20697320616c726561647920696e76616c69640000000000000000600082015250565b60006117ab6018836112c8565b91506117b682611775565b602082019050919050565b600060208201905081810360008301526117da8161179e565b9050919050565b7f4e487b7100000000000000000000000000000000000000000000000000000000600052600160045260246000fd5b7f4e487b7100000000000000000000000000000000000000000000000000000000600052601160045260246000fd5b600061184a82611378565b915061185583611378565b92508282101561186857611867611810565b5b828203905092915050565b600060408201905061188860008301856114d0565b61189560208301846113db565b9392505050565b60006118a782611378565b91506118b283611378565b9250827fffffffffffffffffffffffffffffffffffffffffffffffffffffffffffffffff038211156118e7576118e6611810565b5b828201905092915050565b60006118fd82611378565b915061190883611378565b9250817fffffffffffffffffffffffffffffffffffffffffffffffffffffffffffffffff048311821515161561194157611940611810565b5b828202905092915050565b7f4e487b7100000000000000000000000000000000000000000000000000000000600052604160045260246000fd5b600061198682611378565b9150600082141561199a57611999611810565b5b600182039050919050565b7f537472696e67733a20686578206c656e67746820696e73756666696369656e74600082015250565b60006119db6020836112c8565b91506119e6826119a5565b602082019050919050565b60006020820190508181036000830152611a0a816119ce565b9050919050565b7f43616e6e6f74206d696e7420616e2061737369676e656420746f6b656e000000600082015250565b6000611a47601d836112c8565b9150611a5282611a11565b602082019050919050565b60006020820190508181036000830152611a7681611a3a565b905091905056fea2646970667358221220619a427d23cad6e2feb09afa5095c33b9c9ed70eb4bd6dce2105f0f15c49f4c764736f6c63430008090033",
  "linkReferences": {},
  "deployedLinkReferences": {}
}